{
  "contractName": "Lottery",
  "abi": [
    {
      "constant": true,
      "inputs": [],
      "name": "answerForTest",
      "outputs": [
        {
          "name": "",
          "type": "bytes32"
        }
      ],
      "payable": false,
      "stateMutability": "view",
      "type": "function",
      "signature": "0x84f7e4f0"
    },
    {
      "constant": true,
      "inputs": [],
      "name": "owner",
      "outputs": [
        {
          "name": "",
          "type": "address"
        }
      ],
      "payable": false,
      "stateMutability": "view",
      "type": "function",
      "signature": "0x8da5cb5b"
    },
    {
      "inputs": [],
      "payable": false,
      "stateMutability": "nonpayable",
      "type": "constructor",
      "signature": "constructor"
    },
    {
      "anonymous": false,
      "inputs": [
        {
          "indexed": false,
          "name": "index",
          "type": "uint256"
        },
        {
          "indexed": false,
          "name": "bettor",
          "type": "address"
        },
        {
          "indexed": false,
          "name": "amount",
          "type": "uint256"
        },
        {
          "indexed": false,
          "name": "challenges",
          "type": "bytes1"
        },
        {
          "indexed": false,
          "name": "answerBlockNumber",
          "type": "uint256"
        }
      ],
      "name": "BET",
      "type": "event",
      "signature": "0x100791de9f40bf2d56ffa6dc5597d2fd0b2703ea70bc7548cd74c04f5d215ab7"
    },
    {
      "anonymous": false,
      "inputs": [
        {
          "indexed": false,
          "name": "index",
          "type": "uint256"
        },
        {
          "indexed": false,
          "name": "bettor",
          "type": "address"
        },
        {
          "indexed": false,
          "name": "amount",
          "type": "uint256"
        },
        {
          "indexed": false,
          "name": "challenges",
          "type": "bytes1"
        },
        {
          "indexed": false,
          "name": "answer",
          "type": "bytes1"
        },
        {
          "indexed": false,
          "name": "answerBlockNumber",
          "type": "uint256"
        }
      ],
      "name": "WIN",
      "type": "event",
      "signature": "0x8219079e2d6c1192fb0ff7f78e6faaf5528ad6687e69749205d87bd4b156912b"
    },
    {
      "anonymous": false,
      "inputs": [
        {
          "indexed": false,
          "name": "index",
          "type": "uint256"
        },
        {
          "indexed": false,
          "name": "bettor",
          "type": "address"
        },
        {
          "indexed": false,
          "name": "amount",
          "type": "uint256"
        },
        {
          "indexed": false,
          "name": "challenges",
          "type": "bytes1"
        },
        {
          "indexed": false,
          "name": "answer",
          "type": "bytes1"
        },
        {
          "indexed": false,
          "name": "answerBlockNumber",
          "type": "uint256"
        }
      ],
      "name": "FAIL",
      "type": "event",
      "signature": "0x3b19d607433249d2ebc766ae82ca3848e9c064f1febb5147bc6e5b21d0adebc5"
    },
    {
      "anonymous": false,
      "inputs": [
        {
          "indexed": false,
          "name": "index",
          "type": "uint256"
        },
        {
          "indexed": false,
          "name": "bettor",
          "type": "address"
        },
        {
          "indexed": false,
          "name": "amount",
          "type": "uint256"
        },
        {
          "indexed": false,
          "name": "challenges",
          "type": "bytes1"
        },
        {
          "indexed": false,
          "name": "answer",
          "type": "bytes1"
        },
        {
          "indexed": false,
          "name": "answerBlockNumber",
          "type": "uint256"
        }
      ],
      "name": "DRAW",
      "type": "event",
      "signature": "0x72ec2e949e4fad9380f9d5db3e2ed0e71cf22c51d8d66424508bdc761a3f4b0e"
    },
    {
      "anonymous": false,
      "inputs": [
        {
          "indexed": false,
          "name": "index",
          "type": "uint256"
        },
        {
          "indexed": false,
          "name": "bettor",
          "type": "address"
        },
        {
          "indexed": false,
          "name": "amount",
          "type": "uint256"
        },
        {
          "indexed": false,
          "name": "challenges",
          "type": "bytes1"
        },
        {
          "indexed": false,
          "name": "answerBlockNumber",
          "type": "uint256"
        }
      ],
      "name": "REFUND",
      "type": "event",
      "signature": "0x59c0185881271a0f53d43e6ab9310091408f9e0ff9ae2512613de800f26b8de4"
    },
    {
      "constant": true,
      "inputs": [],
      "name": "getPot",
      "outputs": [
        {
          "name": "pot",
          "type": "uint256"
        }
      ],
      "payable": false,
      "stateMutability": "view",
      "type": "function",
      "signature": "0x403c9fa8"
    },
    {
      "constant": false,
      "inputs": [
        {
          "name": "challenges",
          "type": "bytes1"
        }
      ],
      "name": "betAndDistribute",
      "outputs": [
        {
          "name": "result",
          "type": "bool"
        }
      ],
      "payable": true,
      "stateMutability": "payable",
      "type": "function",
      "signature": "0xe16ea857"
    },
    {
      "constant": false,
      "inputs": [
        {
          "name": "challenges",
          "type": "bytes1"
        }
      ],
      "name": "bet",
      "outputs": [
        {
          "name": "result",
          "type": "bool"
        }
      ],
      "payable": true,
      "stateMutability": "payable",
      "type": "function",
      "signature": "0xf4b46f5b"
    },
    {
      "constant": false,
      "inputs": [],
      "name": "distribute",
      "outputs": [],
      "payable": false,
      "stateMutability": "nonpayable",
      "type": "function",
      "signature": "0xe4fc6b6d"
    },
    {
      "constant": false,
      "inputs": [
        {
          "name": "answer",
          "type": "bytes32"
        }
      ],
      "name": "setAnswerForTest",
      "outputs": [
        {
          "name": "result",
          "type": "bool"
        }
      ],
      "payable": false,
      "stateMutability": "nonpayable",
      "type": "function",
      "signature": "0x7009fa36"
    },
    {
      "constant": true,
      "inputs": [
        {
          "name": "challenges",
          "type": "bytes1"
        },
        {
          "name": "answer",
          "type": "bytes32"
        }
      ],
      "name": "isMatch",
      "outputs": [
        {
          "name": "",
          "type": "uint8"
        }
      ],
      "payable": false,
      "stateMutability": "pure",
      "type": "function",
      "signature": "0x99a167d7"
    },
    {
      "constant": true,
      "inputs": [
        {
          "name": "index",
          "type": "uint256"
        }
      ],
      "name": "getBetInfo",
      "outputs": [
        {
          "name": "answerBlockNumber",
          "type": "uint256"
        },
        {
          "name": "bettor",
          "type": "address"
        },
        {
          "name": "challenges",
          "type": "bytes1"
        }
      ],
      "payable": false,
      "stateMutability": "view",
      "type": "function",
      "signature": "0x79141f80"
    },
    {
      "constant": false,
      "inputs": [
        {
          "name": "index",
          "type": "uint256"
        }
      ],
      "name": "popBet",
      "outputs": [
        {
          "name": "",
          "type": "bool"
        }
      ],
      "payable": false,
      "stateMutability": "nonpayable",
      "type": "function",
      "signature": "0xd04c9a8c"
    }
  ],
  "bytecode": "0x60806040526001600560006101000a81548160ff02191690831515021790555034801561002b57600080fd5b5033600360006101000a81548173ffffffffffffffffffffffffffffffffffffffff021916908373ffffffffffffffffffffffffffffffffffffffff1602179055506116bc8061007c6000396000f3fe6080604052600436106100a4576000357c0100000000000000000000000000000000000000000000000000000000900463ffffffff168063403c9fa8146100a95780637009fa36146100d457806379141f801461012757806384f7e4f0146101f45780638da5cb5b1461021f57806399a167d714610276578063d04c9a8c146102ff578063e16ea85714610352578063e4fc6b6d146103ba578063f4b46f5b146103d1575b600080fd5b3480156100b557600080fd5b506100be610439565b6040518082815260200191505060405180910390f35b3480156100e057600080fd5b5061010d600480360360208110156100f757600080fd5b8101908080359060200190929190505050610443565b604051808215151515815260200191505060405180910390f35b34801561013357600080fd5b506101606004803603602081101561014a57600080fd5b8101908080359060200190929190505050610540565b604051808481526020018373ffffffffffffffffffffffffffffffffffffffff1673ffffffffffffffffffffffffffffffffffffffff168152602001827effffffffffffffffffffffffffffffffffffffffffffffffffffffffffffff19167effffffffffffffffffffffffffffffffffffffffffffffffffffffffffffff19168152602001935050505060405180910390f35b34801561020057600080fd5b50610209610665565b6040518082815260200191505060405180910390f35b34801561022b57600080fd5b5061023461066b565b604051808273ffffffffffffffffffffffffffffffffffffffff1673ffffffffffffffffffffffffffffffffffffffff16815260200191505060405180910390f35b34801561028257600080fd5b506102db6004803603604081101561029957600080fd5b8101908080357effffffffffffffffffffffffffffffffffffffffffffffffffffffffffffff1916906020019092919080359060200190929190505050610691565b604051808260028111156102eb57fe5b60ff16815260200191505060405180910390f35b34801561030b57600080fd5b506103386004803603602081101561032257600080fd5b81019080803590602001909291905050506109da565b604051808215151515815260200191505060405180910390f35b6103a06004803603602081101561036857600080fd5b8101908080357effffffffffffffffffffffffffffffffffffffffffffffffffffffffffffff19169060200190929190505050610a3e565b604051808215151515815260200191505060405180910390f35b3480156103c657600080fd5b506103cf610a5b565b005b61041f600480360360208110156103e757600080fd5b8101908080357effffffffffffffffffffffffffffffffffffffffffffffffffffffffffffff191690602001909291905050506111b8565b604051808215151515815260200191505060405180910390f35b6000600454905090565b6000600360009054906101000a900473ffffffffffffffffffffffffffffffffffffffff1673ffffffffffffffffffffffffffffffffffffffff163373ffffffffffffffffffffffffffffffffffffffff16141515610530576040517f08c379a000000000000000000000000000000000000000000000000000000000815260040180806020018281038252602b8152602001807f4f6e6c79206f776e65722063616e207365742074686520616e7377657220666f81526020017f722074657374206d6f646500000000000000000000000000000000000000000081525060400191505060405180910390fd5b8160068190555060019050919050565b600080600061054d611636565b6002600086815260200190815260200160002060606040519081016040529081600082015481526020016001820160009054906101000a900473ffffffffffffffffffffffffffffffffffffffff1673ffffffffffffffffffffffffffffffffffffffff1673ffffffffffffffffffffffffffffffffffffffff1681526020016001820160149054906101000a90047f0100000000000000000000000000000000000000000000000000000000000000027effffffffffffffffffffffffffffffffffffffffffffffffffffffffffffff19167effffffffffffffffffffffffffffffffffffffffffffffffffffffffffffff1916815250509050806000015193508060200151925080604001519150509193909250565b60065481565b600360009054906101000a900473ffffffffffffffffffffffffffffffffffffffff1681565b600080839050600084905060008460006020811015156106ad57fe5b1a7f010000000000000000000000000000000000000000000000000000000000000002905060008560006020811015156106e357fe5b1a7f01000000000000000000000000000000000000000000000000000000000000000290506004847effffffffffffffffffffffffffffffffffffffffffffffffffffffffffffff1916908060020a820491505093506004847effffffffffffffffffffffffffffffffffffffffffffffffffffffffffffff19169060020a0293506004827effffffffffffffffffffffffffffffffffffffffffffffffffffffffffffff1916908060020a820491505091506004827effffffffffffffffffffffffffffffffffffffffffffffffffffffffffffff19169060020a0291506004837effffffffffffffffffffffffffffffffffffffffffffffffffffffffffffff19169060020a0292506004837effffffffffffffffffffffffffffffffffffffffffffffffffffffffffffff1916908060020a820491505092506004817effffffffffffffffffffffffffffffffffffffffffffffffffffffffffffff19169060020a0290506004817effffffffffffffffffffffffffffffffffffffffffffffffffffffffffffff1916908060020a82049150509050837effffffffffffffffffffffffffffffffffffffffffffffffffffffffffffff1916827effffffffffffffffffffffffffffffffffffffffffffffffffffffffffffff19161480156109125750827effffffffffffffffffffffffffffffffffffffffffffffffffffffffffffff1916817effffffffffffffffffffffffffffffffffffffffffffffffffffffffffffff1916145b156109245760019450505050506109d4565b837effffffffffffffffffffffffffffffffffffffffffffffffffffffffffffff1916827effffffffffffffffffffffffffffffffffffffffffffffffffffffffffffff191614806109b95750827effffffffffffffffffffffffffffffffffffffffffffffffffffffffffffff1916817effffffffffffffffffffffffffffffffffffffffffffffffffffffffffffff1916145b156109cb5760029450505050506109d4565b60009450505050505b92915050565b6000600260008381526020019081526020016000206000808201600090556001820160006101000a81549073ffffffffffffffffffffffffffffffffffffffff02191690556001820160146101000a81549060ff0219169055505060019050919050565b6000610a49826111b8565b50610a52610a5b565b60019050919050565b600080610a66611636565b60008060015494505b6000548510156111aa576002600086815260200190815260200160002060606040519081016040529081600082015481526020016001820160009054906101000a900473ffffffffffffffffffffffffffffffffffffffff1673ffffffffffffffffffffffffffffffffffffffff1673ffffffffffffffffffffffffffffffffffffffff1681526020016001820160149054906101000a90047f0100000000000000000000000000000000000000000000000000000000000000027effffffffffffffffffffffffffffffffffffffffffffffffffffffffffffff19167effffffffffffffffffffffffffffffffffffffffffffffffffffffffffffff1916815250509250610b81836000015161138d565b915060006002811115610b9057fe5b826002811115610b9c57fe5b1415611066576000610bb184600001516113e1565b9050610bc1846040015182610691565b915060016002811115610bd057fe5b826002811115610bdc57fe5b1415610d5657610bfb84602001516611c37937e0800060045401611409565b945060006004819055507f8219079e2d6c1192fb0ff7f78e6faaf5528ad6687e69749205d87bd4b156912b868560200151878760400151856000602081101515610c4157fe5b1a7f0100000000000000000000000000000000000000000000000000000000000000028960000151604051808781526020018673ffffffffffffffffffffffffffffffffffffffff1673ffffffffffffffffffffffffffffffffffffffff168152602001858152602001847effffffffffffffffffffffffffffffffffffffffffffffffffffffffffffff19167effffffffffffffffffffffffffffffffffffffffffffffffffffffffffffff19168152602001837effffffffffffffffffffffffffffffffffffffffffffffffffffffffffffff19167effffffffffffffffffffffffffffffffffffffffffffffffffffffffffffff19168152602001828152602001965050505050505060405180910390a15b60006002811115610d6357fe5b826002811115610d6f57fe5b1415610ede576611c37937e080006004600082825401925050819055507f3b19d607433249d2ebc766ae82ca3848e9c064f1febb5147bc6e5b21d0adebc586856020015160008760400151856000602081101515610dc957fe5b1a7f0100000000000000000000000000000000000000000000000000000000000000028960000151604051808781526020018673ffffffffffffffffffffffffffffffffffffffff1673ffffffffffffffffffffffffffffffffffffffff168152602001858152602001847effffffffffffffffffffffffffffffffffffffffffffffffffffffffffffff19167effffffffffffffffffffffffffffffffffffffffffffffffffffffffffffff19168152602001837effffffffffffffffffffffffffffffffffffffffffffffffffffffffffffff19167effffffffffffffffffffffffffffffffffffffffffffffffffffffffffffff19168152602001828152602001965050505050505060405180910390a15b600280811115610eea57fe5b826002811115610ef657fe5b141561106457610f1184602001516611c37937e08000611409565b94507f72ec2e949e4fad9380f9d5db3e2ed0e71cf22c51d8d66424508bdc761a3f4b0e868560200151878760400151856000602081101515610f4f57fe5b1a7f0100000000000000000000000000000000000000000000000000000000000000028960000151604051808781526020018673ffffffffffffffffffffffffffffffffffffffff1673ffffffffffffffffffffffffffffffffffffffff168152602001858152602001847effffffffffffffffffffffffffffffffffffffffffffffffffffffffffffff19167effffffffffffffffffffffffffffffffffffffffffffffffffffffffffffff19168152602001837effffffffffffffffffffffffffffffffffffffffffffffffffffffffffffff19167effffffffffffffffffffffffffffffffffffffffffffffffffffffffffffff19168152602001828152602001965050505050505060405180910390a15b505b6001600281111561107357fe5b82600281111561107f57fe5b141561108a576111aa565b60028081111561109657fe5b8260028111156110a257fe5b1415611193576110bd83602001516611c37937e08000611409565b93507f59c0185881271a0f53d43e6ab9310091408f9e0ff9ae2512613de800f26b8de48584602001518686604001518760000151604051808681526020018573ffffffffffffffffffffffffffffffffffffffff1673ffffffffffffffffffffffffffffffffffffffff168152602001848152602001837effffffffffffffffffffffffffffffffffffffffffffffffffffffffffffff19167effffffffffffffffffffffffffffffffffffffffffffffffffffffffffffff191681526020018281526020019550505050505060405180910390a15b61119c856109da565b508480600101955050610a6f565b846001819055505050505050565b60006611c37937e0800034141515611238576040517f08c379a000000000000000000000000000000000000000000000000000000000815260040180806020018281038252600e8152602001807f4e6f7420656e6f7567682045544800000000000000000000000000000000000081525060200191505060405180910390fd5b611241826114d2565b15156112b5576040517f08c379a000000000000000000000000000000000000000000000000000000000815260040180806020018281038252601a8152602001807f4661696c20746f206164642061206e65772042657420496e666f00000000000081525060200191505060405180910390fd5b7f100791de9f40bf2d56ffa6dc5597d2fd0b2703ea70bc7548cd74c04f5d215ab760016000540333348560034301604051808681526020018573ffffffffffffffffffffffffffffffffffffffff1673ffffffffffffffffffffffffffffffffffffffff168152602001848152602001837effffffffffffffffffffffffffffffffffffffffffffffffffffffffffffff19167effffffffffffffffffffffffffffffffffffffffffffffffffffffffffffff191681526020018281526020019550505050505060405180910390a160019050919050565b600081431180156113a15750816101000143105b156113af57600090506113dc565b81431115156113c157600190506113dc565b6101008201431015156113d757600290506113dc565b600290505b919050565b6000600560009054906101000a900460ff166113ff57600654611402565b81405b9050919050565b60008060009050600081840390508473ffffffffffffffffffffffffffffffffffffffff166108fc829081150290604051600060405180830381858888f1935050505015801561145d573d6000803e3d6000fd5b50600360009054906101000a900473ffffffffffffffffffffffffffffffffffffffff1673ffffffffffffffffffffffffffffffffffffffff166108fc839081150290604051600060405180830381858888f193505050501580156114c6573d6000803e3d6000fd5b50809250505092915050565b60006114dc611636565b33816020019073ffffffffffffffffffffffffffffffffffffffff16908173ffffffffffffffffffffffffffffffffffffffff1681525050600343018160000181815250508281604001907effffffffffffffffffffffffffffffffffffffffffffffffffffffffffffff191690817effffffffffffffffffffffffffffffffffffffffffffffffffffffffffffff1916815250508060026000805481526020019081526020016000206000820151816000015560208201518160010160006101000a81548173ffffffffffffffffffffffffffffffffffffffff021916908373ffffffffffffffffffffffffffffffffffffffff16021790555060408201518160010160146101000a81548160ff02191690837f01000000000000000000000000000000000000000000000000000000000000009004021790555090505060008081548092919060010191905055506001915050919050565b60606040519081016040528060008152602001600073ffffffffffffffffffffffffffffffffffffffff16815260200160007effffffffffffffffffffffffffffffffffffffffffffffffffffffffffffff19168152509056fea165627a7a723058205121e82f999e6556d7a18db8c66dc7f51da9bb7091236b2f703b303eb846730b0029",
  "source": "pragma solidity >=0.4.21 <0.6.0;\r\n\r\ncontract Lottery {\r\n    struct BetInfo{\r\n        uint256 answerBlockNumber;\r\n        address payable bettor;\r\n        //address bettor;\r\n        byte challenges; // 0xab 같은 1바이트 글자\r\n    }\r\n\r\n    uint256 private _tail;\r\n    uint256 private _head;\r\n    mapping (uint256 => BetInfo) private _bets;\r\n\r\n    address payable public owner;\r\n\r\n    uint256 private _pot;\r\n    bool private mode = true; // false : use answer for test, true : use real block hash\r\n    bytes32 public answerForTest;\r\n\r\n    uint256 constant internal BLOCK_LIMIT = 256;\r\n    uint256 constant internal BET_BLOCK_INTERVAL = 3; // 3번 이후 블록\r\n    uint256 constant internal BET_AMOUNT = 5 * 10 ** 15; // 0.005 ETH\r\n\r\n    enum BlockStatus {Checkable, NotRevealed, BlockLimitPassed}\r\n    enum BettingResult {Fail, Win, Draw}\r\n\r\n    event BET(uint256 index, address bettor, uint256 amount, byte challenges, uint256 answerBlockNumber);\r\n    event WIN(uint256 index, address bettor, uint256 amount, byte challenges, byte answer, uint256 answerBlockNumber);\r\n    event FAIL(uint256 index, address bettor, uint256 amount, byte challenges, byte answer, uint256 answerBlockNumber);\r\n    event DRAW(uint256 index, address bettor, uint256 amount, byte challenges, byte answer, uint256 answerBlockNumber);\r\n    event REFUND(uint256 index, address bettor, uint256 amount, byte challenges, uint256 answerBlockNumber);\r\n\r\n    constructor() public {\r\n        owner = msg.sender; // 배포를 할 때 보낸사람을 owner로 저장\r\n    }\r\n\r\n    function getPot() public view returns (uint256 pot) {\r\n        return _pot;\r\n    }\r\n\r\n     /**\r\n      * @dev 배팅과 정답 체크를 한다. 유저는 0.005 ETH를 보내야 하고, 배팅용 1 byte 글자를 보낸다.\r\n      * 큐에 저장된 배팅 정보는 이후 distribute 함수에서 해결된다.\r\n      * @param challenges 유저가 배팅하는 글자\r\n      * @return 함수가 잘 수행되었는지 확인하는 bool 값\r\n      */\r\n    function betAndDistribute(byte challenges) public payable returns (bool result) {\r\n        bet(challenges);\r\n        distribute();\r\n\r\n        return true;\r\n    }\r\n     /**\r\n      * @dev 배팅을 한다. 유저는 0.005 ETH를 보내야 하고, 배팅용 1 byte 글자를 보낸다.\r\n      * 큐에 저장된 배팅 정보는 이후 distribute 함수에서 해결된다.\r\n      * @param challenges 유저가 배팅하는 글자\r\n      * @return 함수가 잘 수행되었는지 확인하는 bool 값\r\n      */\r\n\r\n    function bet(byte challenges) public payable returns (bool result) {\r\n        // Check the proper ether is sent\r\n        require(msg.value == BET_AMOUNT, \"Not enough ETH\");\r\n\r\n        // Push bet to the queue\r\n        require(pushBet(challenges), \"Fail to add a new Bet Info\");\r\n\r\n        // emit event\r\n        emit BET(_tail - 1, msg.sender, msg.value, challenges, block.number + BET_BLOCK_INTERVAL);\r\n\r\n        return true;\r\n    }\r\n\r\n\r\n    /**\r\n     * @dev 베팅 결과값을 확인 하고 팟머니를 분배한다.\r\n     * 정답 실패 : 팟머니 축적, 정답 맞춤 : 팟머니 획득, 한글자 맞춤 or 정답 확인 불가 : 베팅 금액만 획득\r\n     */\r\n    function distribute() public {\r\n        // head 6 7 8 9 10 11 12 tail\r\n        uint256 cur;\r\n        uint256 transferAmount;\r\n\r\n        BetInfo memory b;\r\n        BlockStatus currentBlockStatus;\r\n        BettingResult currentBettingResult;\r\n\r\n        for(cur = _head;cur < _tail;cur++) {\r\n            b = _bets[cur];\r\n            currentBlockStatus = getBlockStatus(b.answerBlockNumber);\r\n\r\n            // Checkable : block.number > AnswerBlockNumber && block.number < BLOCK_LIMIT + AnswerBlockNumber 1\r\n            if(currentBlockStatus == BlockStatus.Checkable) {\r\n                bytes32 answerBlockHash = getAnswerBlockHash(b.answerBlockNumber);\r\n                currentBettingResult = isMatch(b.challenges, answerBlockHash);\r\n                // if win, bettor gets pot\r\n                if(currentBettingResult == BettingResult.Win) {\r\n                    // transfer pot\r\n                    transferAmount = transferAfterPayingFee(b.bettor, _pot + BET_AMOUNT);\r\n\r\n                    // pot == 0\r\n                    _pot = 0;\r\n\r\n                    // emit WIN event\r\n                    emit WIN(cur, b.bettor, transferAmount, b.challenges, answerBlockHash[0], b.answerBlockNumber);\r\n                }\r\n                // if fail, bettor's money goes pot\r\n                if(currentBettingResult == BettingResult.Fail) {\r\n                    // pot = pot + BET_AMOUNT\r\n                    _pot += BET_AMOUNT;\r\n\r\n                    // emit FAIL event\r\n                    emit FAIL(cur, b.bettor, 0, b.challenges, answerBlockHash[0], b.answerBlockNumber);\r\n                }\r\n                if(currentBettingResult == BettingResult.Draw) {\r\n                    // transfer only BET_AMOUNT\r\n                    transferAmount = transferAfterPayingFee(b.bettor, BET_AMOUNT);\r\n\r\n                    // emit DRAW event\r\n                    emit DRAW(cur, b.bettor, transferAmount, b.challenges, answerBlockHash[0], b.answerBlockNumber);\r\n                }\r\n\r\n                // if draw, refund bettor's money\r\n            }\r\n            // Not Revealed : block.number <= AnswerBlockNumber 2\r\n            if(currentBlockStatus == BlockStatus.NotRevealed) {\r\n                break;\r\n            }\r\n\r\n            // Block Limit Passed : block.number >= AnswerBlockNumber + BLOCK_LIMIT 3\r\n            if(currentBlockStatus == BlockStatus.BlockLimitPassed) {\r\n                // refund\r\n                transferAmount = transferAfterPayingFee(b.bettor, BET_AMOUNT);\r\n                // emit refund\r\n                emit REFUND(cur, b.bettor, transferAmount, b.challenges, b.answerBlockNumber);\r\n            }\r\n\r\n            popBet(cur);\r\n        }\r\n        _head = cur;\r\n    }\r\n\r\n    function transferAfterPayingFee(address payable addr, uint256 amount) internal returns (uint256) {\r\n        // uint256 fee = amount / 100;\r\n        uint256 fee = 0;\r\n        uint256 amountWithoutFee = amount - fee;\r\n\r\n        // transfer to addr\r\n        addr.transfer(amountWithoutFee);\r\n        // transfer to owner\r\n        owner.transfer(fee);\r\n        \r\n        return amountWithoutFee;\r\n    }\r\n\r\n    function setAnswerForTest(bytes32 answer) public returns (bool result) {\r\n        require(msg.sender == owner, \"Only owner can set the answer for test mode\");\r\n        answerForTest = answer;\r\n        return true;\r\n    }\r\n\r\n    function getAnswerBlockHash(uint256 answerBlockNumber) internal view returns (bytes32 answer) {\r\n         return mode ? blockhash(answerBlockNumber) : answerForTest;\r\n    }\r\n\r\n    /**\r\n     * @dev 베팅글자와 정답을 확인한다.\r\n     * @param challenges 베팅 글자\r\n     * @param answer 블락해쉬\r\n     * @return 정답결과\r\n     */\r\n    function isMatch(byte challenges, bytes32 answer) public pure returns (BettingResult) {\r\n        // challenges 0xab\r\n        // answer 0xab.....ff 32 bytes\r\n\r\n        byte c1 = challenges;\r\n        byte c2 = challenges;\r\n\r\n        byte a1 = answer[0];\r\n        byte a2 = answer[0];\r\n\r\n        // Get first number\r\n        c1 = c1 >> 4; // 0xab -> 0x0a\r\n        c1 = c1 << 4; // 0x0a -> 0xa0\r\n\r\n        a1 = a1 >> 4;\r\n        a1 = a1 << 4;\r\n\r\n        // Get Second number\r\n        c2 = c2 << 4; // 0xab -> 0xb0\r\n        c2 = c2 >> 4; // 0xb0 -> 0x0b\r\n\r\n        a2 = a2 << 4;\r\n        a2 = a2 >> 4;\r\n\r\n        if(a1 == c1 && a2 == c2){\r\n            return BettingResult.Win;\r\n        }\r\n\r\n        if(a1 == c1 || a2 == c2){\r\n            return BettingResult.Draw;\r\n        }\r\n\r\n        return BettingResult.Fail;\r\n    }\r\n\r\n    function getBlockStatus(uint256 answerBlockNumber) internal view returns (BlockStatus) {\r\n        if(block.number > answerBlockNumber && block.number < BLOCK_LIMIT + answerBlockNumber) {\r\n            return BlockStatus.Checkable;\r\n        }\r\n\r\n        if(block.number <= answerBlockNumber) {\r\n            return BlockStatus.NotRevealed;\r\n        }\r\n\r\n        if(block.number >= answerBlockNumber + BLOCK_LIMIT) {\r\n            return BlockStatus.BlockLimitPassed;\r\n        }\r\n\r\n        return BlockStatus.BlockLimitPassed;\r\n    }\r\n\r\n    function getBetInfo(uint256 index) public view returns (uint256 answerBlockNumber, address bettor, byte challenges) {\r\n        BetInfo memory b = _bets[index];\r\n        answerBlockNumber = b.answerBlockNumber;\r\n        bettor = b.bettor;\r\n        challenges = b.challenges;\r\n    }\r\n\r\n    function pushBet(byte challenges) internal returns (bool){\r\n        BetInfo memory b;\r\n        b.bettor = msg.sender;\r\n        b.answerBlockNumber = block.number + BET_BLOCK_INTERVAL;\r\n        b.challenges = challenges;\r\n\r\n        _bets[_tail] = b;\r\n        _tail++;\r\n        return true;\r\n    }\r\n\r\n    function popBet(uint256 index) public returns (bool) {\r\n        delete _bets[index];\r\n        return true;\r\n    }\r\n}",
  "sourcePath": "C:/Users/islab/Desktop/lottery-smart-contract/contracts/Lottery.sol",
  "compiler": {
    "name": "solc",
    "version": "0.5.0+commit.1d4f565a.Emscripten.clang"
  },
  "schemaVersion": "3.0.1",
  "updatedAt": "2019-07-25T03:09:20.467Z",
  "devdoc": {
    "methods": {
      "bet(bytes1)": {
        "details": "배팅을 한다. 유저는 0.005 ETH를 보내야 하고, 배팅용 1 byte 글자를 보낸다.\r 큐에 저장된 배팅 정보는 이후 distribute 함수에서 해결된다.\r",
        "params": {
          "challenges": "유저가 배팅하는 글자\r"
        },
        "return": "함수가 잘 수행되었는지 확인하는 bool 값\r"
      },
      "betAndDistribute(bytes1)": {
        "details": "배팅과 정답 체크를 한다. 유저는 0.005 ETH를 보내야 하고, 배팅용 1 byte 글자를 보낸다.\r 큐에 저장된 배팅 정보는 이후 distribute 함수에서 해결된다.\r",
        "params": {
          "challenges": "유저가 배팅하는 글자\r"
        },
        "return": "함수가 잘 수행되었는지 확인하는 bool 값\r"
      },
      "distribute()": {
        "details": "베팅 결과값을 확인 하고 팟머니를 분배한다.\r 정답 실패 : 팟머니 축적, 정답 맞춤 : 팟머니 획득, 한글자 맞춤 or 정답 확인 불가 : 베팅 금액만 획득\r"
      },
      "isMatch(bytes1,bytes32)": {
        "details": "베팅글자와 정답을 확인한다.\r",
        "params": {
          "answer": "블락해쉬\r",
          "challenges": "베팅 글자\r"
        },
        "return": "정답결과\r"
      }
    }
  },
  "userdoc": {
    "methods": {}
  }
}